{
  "contractName": "Main",
  "abi": [
    {
      "constant": false,
      "inputs": [
        {
          "internalType": "string",
          "name": "userName",
          "type": "string"
        }
      ],
      "name": "setUserName",
      "outputs": [],
      "payable": false,
      "stateMutability": "nonpayable",
      "type": "function"
    },
    {
      "constant": false,
      "inputs": [],
      "name": "printMessage",
      "outputs": [
        {
          "internalType": "string",
          "name": "",
          "type": "string"
        }
      ],
      "payable": false,
      "stateMutability": "nonpayable",
      "type": "function"
    }
  ],
  "bytecode": "0x608060405234801561001057600080fd5b5061041d806100206000396000f3fe608060405234801561001057600080fd5b50600436106100365760003560e01c80632b5914fe1461003b57806354f8cd2e146100f6575b600080fd5b6100f46004803603602081101561005157600080fd5b810190808035906020019064010000000081111561006e57600080fd5b82018360208201111561008057600080fd5b803590602001918460018302840111640100000000831117156100a257600080fd5b91908080601f016020809104026020016040519081016040528093929190818152602001838380828437600081840152601f19601f820116905080830192505050505050509192919290505050610179565b005b6100fe610193565b6040518080602001828103825283818151815260200191508051906020019080838360005b8381101561013e578082015181840152602081019050610123565b50505050905090810190601f16801561016b5780820380516001836020036101000a031916815260200191505b509250505060405180910390f35b806000908051906020019061018f929190610343565b5050565b60608060405160200180807f48656c6c6f200000000000000000000000000000000000000000000000000000815250600601905060405160208183030381529060405290508060006040516020018083805190602001908083835b6020831061021157805182526020820191506020810190506020830392506101ee565b6001836020036101000a0380198251168184511680821785525050505050509050018280546001816001161561010002031660029004801561028a5780601f1061026857610100808354040283529182019161028a565b820191906000526020600020905b815481529060010190602001808311610276575b5050925050506040516020818303038152906040529050806040516020018082805190602001908083835b602083106102d857805182526020820191506020810190506020830392506102b5565b6001836020036101000a038019825116818451168082178552505050505050905001807f210000000000000000000000000000000000000000000000000000000000000081525060010191505060405160208183030381529060405290506060819050809250505090565b828054600181600116156101000203166002900490600052602060002090601f016020900481019282601f1061038457805160ff19168380011785556103b2565b828001600101855582156103b2579182015b828111156103b1578251825591602001919060010190610396565b5b5090506103bf91906103c3565b5090565b6103e591905b808211156103e15760008160009055506001016103c9565b5090565b9056fea265627a7a72315820889de81e8239b89093622e1fbed7f0c9752ed5e2a2bb3eaa3654b1fa5d500c6b64736f6c63430005100032",
  "source": "pragma solidity ^0.5.0;\r\n\r\ncontract Main {\r\n    string name;\r\n\r\n    function setUserName(string memory userName) public {\r\n        name = userName;\r\n    }\r\n\r\n    function printMessage() public returns(string memory) {\r\n        bytes memory concat_strings;\r\n        concat_strings = abi.encodePacked(\"Hello \");\r\n        concat_strings = abi.encodePacked(concat_strings, name);\r\n        concat_strings = abi.encodePacked(concat_strings, \"!\");\r\n        string memory message = string(concat_strings);\r\n\r\n        return message;\r\n    }\r\n}",
  "sourcePath": "C:\\Users\\Edeh Emmanuel\\Desktop\\hello-world\\smart_contract_helloworld-main\\contracts\\Main.sol",
  "compiler": {
    "name": "solc",
    "version": "0.5.16+commit.9c3226ce.Emscripten.clang"
  },
  "schemaVersion": "3.4.14",
  "updatedAt": "2023-06-30T11:56:15.034Z",
  "networkType": "ethereum",
  "devdoc": {
    "methods": {}
  },
  "userdoc": {
    "methods": {}
  }
}